{
  "_format": "hh-sol-artifact-1",
  "contractName": "CharityPlatform",
  "sourceName": "contracts/Charity.sol",
  "abi": [
    {
      "inputs": [],
      "stateMutability": "nonpayable",
      "type": "constructor"
    },
    {
      "anonymous": false,
      "inputs": [
        {
          "indexed": true,
          "internalType": "address",
          "name": "donor",
          "type": "address"
        },
        {
          "indexed": false,
          "internalType": "uint256",
          "name": "amount",
          "type": "uint256"
        }
      ],
      "name": "DonationReceived",
      "type": "event"
    },
    {
      "anonymous": false,
      "inputs": [
        {
          "indexed": true,
          "internalType": "address",
          "name": "recipient",
          "type": "address"
        },
        {
          "indexed": false,
          "internalType": "uint256",
          "name": "amount",
          "type": "uint256"
        }
      ],
      "name": "FundsTransferred",
      "type": "event"
    },
    {
      "anonymous": false,
      "inputs": [
        {
          "indexed": true,
          "internalType": "address",
          "name": "recipient",
          "type": "address"
        }
      ],
      "name": "RecipientApproved",
      "type": "event"
    },
    {
      "anonymous": false,
      "inputs": [
        {
          "indexed": true,
          "internalType": "address",
          "name": "recipient",
          "type": "address"
        },
        {
          "indexed": false,
          "internalType": "string",
          "name": "name",
          "type": "string"
        },
        {
          "indexed": false,
          "internalType": "string",
          "name": "reason",
          "type": "string"
        },
        {
          "indexed": false,
          "internalType": "uint256",
          "name": "amountNeeded",
          "type": "uint256"
        }
      ],
      "name": "RecipientRegistered",
      "type": "event"
    },
    {
      "inputs": [],
      "name": "admin",
      "outputs": [
        {
          "internalType": "address",
          "name": "",
          "type": "address"
        }
      ],
      "stateMutability": "view",
      "type": "function"
    },
    {
      "inputs": [
        {
          "internalType": "address",
          "name": "_recipient",
          "type": "address"
        }
      ],
      "name": "approveRecipient",
      "outputs": [],
      "stateMutability": "nonpayable",
      "type": "function"
    },
    {
      "inputs": [],
      "name": "donate",
      "outputs": [],
      "stateMutability": "payable",
      "type": "function"
    },
    {
      "inputs": [
        {
          "internalType": "address",
          "name": "_recipient",
          "type": "address"
        }
      ],
      "name": "donateToRecipient",
      "outputs": [],
      "stateMutability": "payable",
      "type": "function"
    },
    {
      "inputs": [],
      "name": "getAllRecipients",
      "outputs": [
        {
          "internalType": "address[]",
          "name": "",
          "type": "address[]"
        }
      ],
      "stateMutability": "view",
      "type": "function"
    },
    {
      "inputs": [],
      "name": "getContractBalance",
      "outputs": [
        {
          "internalType": "uint256",
          "name": "",
          "type": "uint256"
        }
      ],
      "stateMutability": "view",
      "type": "function"
    },
    {
      "inputs": [
        {
          "internalType": "uint256",
          "name": "",
          "type": "uint256"
        }
      ],
      "name": "recipientList",
      "outputs": [
        {
          "internalType": "address",
          "name": "",
          "type": "address"
        }
      ],
      "stateMutability": "view",
      "type": "function"
    },
    {
      "inputs": [
        {
          "internalType": "address",
          "name": "",
          "type": "address"
        }
      ],
      "name": "recipients",
      "outputs": [
        {
          "internalType": "address payable",
          "name": "wallet",
          "type": "address"
        },
        {
          "internalType": "string",
          "name": "name",
          "type": "string"
        },
        {
          "internalType": "string",
          "name": "reason",
          "type": "string"
        },
        {
          "internalType": "uint256",
          "name": "amountNeeded",
          "type": "uint256"
        },
        {
          "internalType": "bool",
          "name": "approved",
          "type": "bool"
        },
        {
          "internalType": "bool",
          "name": "received",
          "type": "bool"
        }
      ],
      "stateMutability": "view",
      "type": "function"
    },
    {
      "inputs": [
        {
          "internalType": "address",
          "name": "_userWallet",
          "type": "address"
        },
        {
          "internalType": "string",
          "name": "_name",
          "type": "string"
        },
        {
          "internalType": "string",
          "name": "_reason",
          "type": "string"
        },
        {
          "internalType": "uint256",
          "name": "_amountNeeded",
          "type": "uint256"
        }
      ],
      "name": "registerRecipient",
      "outputs": [],
      "stateMutability": "nonpayable",
      "type": "function"
    },
    {
      "inputs": [
        {
          "internalType": "address",
          "name": "_recipient",
          "type": "address"
        }
      ],
      "name": "transferFunds",
      "outputs": [],
      "stateMutability": "nonpayable",
      "type": "function"
    },
    {
      "inputs": [],
      "name": "withdraw",
      "outputs": [],
      "stateMutability": "nonpayable",
      "type": "function"
    }
  ],
  "bytecode": "0x608060405234801561001057600080fd5b50336000806101000a81548173ffffffffffffffffffffffffffffffffffffffff021916908373ffffffffffffffffffffffffffffffffffffffff1602179055506120a7806100606000396000f3fe60806040526004361061009c5760003560e01c8063ad53946011610064578063ad53946014610172578063b74513c11461018e578063e39ff19f146101b9578063eb820312146101e2578063ed88c68e14610224578063f851a4401461022e5761009c565b80633ccfd60b146100a15780636d40f85b146100b85780636f9fb98a146100f557806376d45a09146101205780638693fd7514610149575b600080fd5b3480156100ad57600080fd5b506100b6610259565b005b3480156100c457600080fd5b506100df60048036038101906100da91906113cf565b6104f8565b6040516100ec919061143d565b60405180910390f35b34801561010157600080fd5b5061010a610537565b6040516101179190611467565b60405180910390f35b34801561012c57600080fd5b50610147600480360381019061014291906114ae565b61053f565b005b34801561015557600080fd5b50610170600480360381019061016b9190611621565b6107ce565b005b61018c600480360381019061018791906114ae565b610aa2565b005b34801561019a57600080fd5b506101a3610cb0565b6040516101b0919061177e565b60405180910390f35b3480156101c557600080fd5b506101e060048036038101906101db91906114ae565b610d3e565b005b3480156101ee57600080fd5b50610209600480360381019061020491906114ae565b611148565b60405161021b9695949392919061185b565b60405180910390f35b61022c6112ce565b005b34801561023a57600080fd5b50610243611361565b604051610250919061143d565b60405180910390f35b6000600160003373ffffffffffffffffffffffffffffffffffffffff1673ffffffffffffffffffffffffffffffffffffffff1681526020019081526020016000209050600073ffffffffffffffffffffffffffffffffffffffff168160000160009054906101000a900473ffffffffffffffffffffffffffffffffffffffff1673ffffffffffffffffffffffffffffffffffffffff160361032f576040517f08c379a000000000000000000000000000000000000000000000000000000000815260040161032690611916565b60405180910390fd5b8060040160009054906101000a900460ff16610380576040517f08c379a000000000000000000000000000000000000000000000000000000000815260040161037790611982565b60405180910390fd5b8060040160019054906101000a900460ff16156103d2576040517f08c379a00000000000000000000000000000000000000000000000000000000081526004016103c9906119ee565b60405180910390fd5b6000816003015490508047101561041e576040517f08c379a000000000000000000000000000000000000000000000000000000000815260040161041590611a5a565b60405180910390fd5b8160000160009054906101000a900473ffffffffffffffffffffffffffffffffffffffff1673ffffffffffffffffffffffffffffffffffffffff166108fc829081150290604051600060405180830381858888f19350505050158015610488573d6000803e3d6000fd5b5060018260040160016101000a81548160ff0219169083151502179055503373ffffffffffffffffffffffffffffffffffffffff167f8c9a4f13b67cb64d7c6aa1ae0c9bf07694af521a28b93e7060020810ab4bc59f826040516104ec9190611467565b60405180910390a25050565b6002818154811061050857600080fd5b906000526020600020016000915054906101000a900473ffffffffffffffffffffffffffffffffffffffff1681565b600047905090565b60008054906101000a900473ffffffffffffffffffffffffffffffffffffffff1673ffffffffffffffffffffffffffffffffffffffff163373ffffffffffffffffffffffffffffffffffffffff16146105cd576040517f08c379a00000000000000000000000000000000000000000000000000000000081526004016105c490611aec565b60405180910390fd5b600073ffffffffffffffffffffffffffffffffffffffff16600160008373ffffffffffffffffffffffffffffffffffffffff1673ffffffffffffffffffffffffffffffffffffffff16815260200190815260200160002060000160009054906101000a900473ffffffffffffffffffffffffffffffffffffffff1673ffffffffffffffffffffffffffffffffffffffff160361069e576040517f08c379a000000000000000000000000000000000000000000000000000000000815260040161069590611916565b60405180910390fd5b600160008273ffffffffffffffffffffffffffffffffffffffff1673ffffffffffffffffffffffffffffffffffffffff16815260200190815260200160002060040160009054906101000a900460ff161561072e576040517f08c379a000000000000000000000000000000000000000000000000000000000815260040161072590611b58565b60405180910390fd5b60018060008373ffffffffffffffffffffffffffffffffffffffff1673ffffffffffffffffffffffffffffffffffffffff16815260200190815260200160002060040160006101000a81548160ff0219169083151502179055508073ffffffffffffffffffffffffffffffffffffffff167f09fc45c4c2993899475bf706f40bd1bffb0121f30ce25abfcb3113d11b4bb87660405160405180910390a250565b600073ffffffffffffffffffffffffffffffffffffffff16600160008673ffffffffffffffffffffffffffffffffffffffff1673ffffffffffffffffffffffffffffffffffffffff16815260200190815260200160002060000160009054906101000a900473ffffffffffffffffffffffffffffffffffffffff1673ffffffffffffffffffffffffffffffffffffffff161461089f576040517f08c379a000000000000000000000000000000000000000000000000000000000815260040161089690611bc4565b60405180910390fd5b6040518060c001604052808573ffffffffffffffffffffffffffffffffffffffff16815260200184815260200183815260200182815260200160001515815260200160001515815250600160008673ffffffffffffffffffffffffffffffffffffffff1673ffffffffffffffffffffffffffffffffffffffff16815260200190815260200160002060008201518160000160006101000a81548173ffffffffffffffffffffffffffffffffffffffff021916908373ffffffffffffffffffffffffffffffffffffffff16021790555060208201518160010190816109839190611df0565b5060408201518160020190816109999190611df0565b506060820151816003015560808201518160040160006101000a81548160ff02191690831515021790555060a08201518160040160016101000a81548160ff0219169083151502179055509050506002849080600181540180825580915050600190039060005260206000200160009091909190916101000a81548173ffffffffffffffffffffffffffffffffffffffff021916908373ffffffffffffffffffffffffffffffffffffffff1602179055508373ffffffffffffffffffffffffffffffffffffffff167fd4f7c70059863460c4dff216b5d01688ec8a4135f4f229f58117db8f26a18b6a848484604051610a9493929190611ec2565b60405180910390a250505050565b60003411610ae5576040517f08c379a0000000000000000000000000000000000000000000000000000000008152600401610adc90611f79565b60405180910390fd5b600073ffffffffffffffffffffffffffffffffffffffff16600160008373ffffffffffffffffffffffffffffffffffffffff1673ffffffffffffffffffffffffffffffffffffffff16815260200190815260200160002060000160009054906101000a900473ffffffffffffffffffffffffffffffffffffffff1673ffffffffffffffffffffffffffffffffffffffff1603610bb6576040517f08c379a0000000000000000000000000000000000000000000000000000000008152600401610bad90611916565b60405180910390fd5b3373ffffffffffffffffffffffffffffffffffffffff167f264f630d9efa0d07053a31163641d9fcc0adafc9d9e76f1c37c2ce3a558d2c5234604051610bfc9190611467565b60405180910390a2600160008273ffffffffffffffffffffffffffffffffffffffff1673ffffffffffffffffffffffffffffffffffffffff16815260200190815260200160002060000160009054906101000a900473ffffffffffffffffffffffffffffffffffffffff1673ffffffffffffffffffffffffffffffffffffffff166108fc349081150290604051600060405180830381858888f19350505050158015610cac573d6000803e3d6000fd5b5050565b60606002805480602002602001604051908101604052809291908181526020018280548015610d3457602002820191906000526020600020905b8160009054906101000a900473ffffffffffffffffffffffffffffffffffffffff1673ffffffffffffffffffffffffffffffffffffffff1681526020019060010190808311610cea575b5050505050905090565b60008054906101000a900473ffffffffffffffffffffffffffffffffffffffff1673ffffffffffffffffffffffffffffffffffffffff163373ffffffffffffffffffffffffffffffffffffffff1614610dcc576040517f08c379a0000000000000000000000000000000000000000000000000000000008152600401610dc390611aec565b60405180910390fd5b600160008273ffffffffffffffffffffffffffffffffffffffff1673ffffffffffffffffffffffffffffffffffffffff16815260200190815260200160002060040160009054906101000a900460ff16610e5b576040517f08c379a0000000000000000000000000000000000000000000000000000000008152600401610e5290611982565b60405180910390fd5b600160008273ffffffffffffffffffffffffffffffffffffffff1673ffffffffffffffffffffffffffffffffffffffff16815260200190815260200160002060040160019054906101000a900460ff1615610eeb576040517f08c379a0000000000000000000000000000000000000000000000000000000008152600401610ee290611fe5565b60405180910390fd5b600160008273ffffffffffffffffffffffffffffffffffffffff1673ffffffffffffffffffffffffffffffffffffffff16815260200190815260200160002060030154471015610f70576040517f08c379a0000000000000000000000000000000000000000000000000000000008152600401610f6790612051565b60405180910390fd5b600160008273ffffffffffffffffffffffffffffffffffffffff1673ffffffffffffffffffffffffffffffffffffffff16815260200190815260200160002060000160009054906101000a900473ffffffffffffffffffffffffffffffffffffffff1673ffffffffffffffffffffffffffffffffffffffff166108fc600160008473ffffffffffffffffffffffffffffffffffffffff1673ffffffffffffffffffffffffffffffffffffffff168152602001908152602001600020600301549081150290604051600060405180830381858888f1935050505015801561105a573d6000803e3d6000fd5b5060018060008373ffffffffffffffffffffffffffffffffffffffff1673ffffffffffffffffffffffffffffffffffffffff16815260200190815260200160002060040160016101000a81548160ff0219169083151502179055508073ffffffffffffffffffffffffffffffffffffffff167f8c9a4f13b67cb64d7c6aa1ae0c9bf07694af521a28b93e7060020810ab4bc59f600160008473ffffffffffffffffffffffffffffffffffffffff1673ffffffffffffffffffffffffffffffffffffffff1681526020019081526020016000206003015460405161113d9190611467565b60405180910390a250565b60016020528060005260406000206000915090508060000160009054906101000a900473ffffffffffffffffffffffffffffffffffffffff169080600101805461119190611c13565b80601f01602080910402602001604051908101604052809291908181526020018280546111bd90611c13565b801561120a5780601f106111df5761010080835404028352916020019161120a565b820191906000526020600020905b8154815290600101906020018083116111ed57829003601f168201915b50505050509080600201805461121f90611c13565b80601f016020809104026020016040519081016040528092919081815260200182805461124b90611c13565b80156112985780601f1061126d57610100808354040283529160200191611298565b820191906000526020600020905b81548152906001019060200180831161127b57829003601f168201915b5050505050908060030154908060040160009054906101000a900460ff16908060040160019054906101000a900460ff16905086565b60003411611311576040517f08c379a000000000000000000000000000000000000000000000000000000000815260040161130890611f79565b60405180910390fd5b3373ffffffffffffffffffffffffffffffffffffffff167f264f630d9efa0d07053a31163641d9fcc0adafc9d9e76f1c37c2ce3a558d2c52346040516113579190611467565b60405180910390a2565b60008054906101000a900473ffffffffffffffffffffffffffffffffffffffff1681565b6000604051905090565b600080fd5b600080fd5b6000819050919050565b6113ac81611399565b81146113b757600080fd5b50565b6000813590506113c9816113a3565b92915050565b6000602082840312156113e5576113e461138f565b5b60006113f3848285016113ba565b91505092915050565b600073ffffffffffffffffffffffffffffffffffffffff82169050919050565b6000611427826113fc565b9050919050565b6114378161141c565b82525050565b6000602082019050611452600083018461142e565b92915050565b61146181611399565b82525050565b600060208201905061147c6000830184611458565b92915050565b61148b8161141c565b811461149657600080fd5b50565b6000813590506114a881611482565b92915050565b6000602082840312156114c4576114c361138f565b5b60006114d284828501611499565b91505092915050565b600080fd5b600080fd5b6000601f19601f8301169050919050565b7f4e487b7100000000000000000000000000000000000000000000000000000000600052604160045260246000fd5b61152e826114e5565b810181811067ffffffffffffffff8211171561154d5761154c6114f6565b5b80604052505050565b6000611560611385565b905061156c8282611525565b919050565b600067ffffffffffffffff82111561158c5761158b6114f6565b5b611595826114e5565b9050602081019050919050565b82818337600083830152505050565b60006115c46115bf84611571565b611556565b9050828152602081018484840111156115e0576115df6114e0565b5b6115eb8482856115a2565b509392505050565b600082601f830112611608576116076114db565b5b81356116188482602086016115b1565b91505092915050565b6000806000806080858703121561163b5761163a61138f565b5b600061164987828801611499565b945050602085013567ffffffffffffffff81111561166a57611669611394565b5b611676878288016115f3565b935050604085013567ffffffffffffffff81111561169757611696611394565b5b6116a3878288016115f3565b92505060606116b4878288016113ba565b91505092959194509250565b600081519050919050565b600082825260208201905092915050565b6000819050602082019050919050565b6116f58161141c565b82525050565b600061170783836116ec565b60208301905092915050565b6000602082019050919050565b600061172b826116c0565b61173581856116cb565b9350611740836116dc565b8060005b8381101561177157815161175888826116fb565b975061176383611713565b925050600181019050611744565b5085935050505092915050565b600060208201905081810360008301526117988184611720565b905092915050565b60006117ab826113fc565b9050919050565b6117bb816117a0565b82525050565b600081519050919050565b600082825260208201905092915050565b60005b838110156117fb5780820151818401526020810190506117e0565b60008484015250505050565b6000611812826117c1565b61181c81856117cc565b935061182c8185602086016117dd565b611835816114e5565b840191505092915050565b60008115159050919050565b61185581611840565b82525050565b600060c08201905061187060008301896117b2565b81810360208301526118828188611807565b905081810360408301526118968187611807565b90506118a56060830186611458565b6118b2608083018561184c565b6118bf60a083018461184c565b979650505050505050565b7f526563697069656e74206e6f7420666f756e6400000000000000000000000000600082015250565b60006119006013836117cc565b915061190b826118ca565b602082019050919050565b6000602082019050818103600083015261192f816118f3565b9050919050565b7f526563697069656e74206e6f7420617070726f76656400000000000000000000600082015250565b600061196c6016836117cc565b915061197782611936565b602082019050919050565b6000602082019050818103600083015261199b8161195f565b9050919050565b7f46756e647320616c726561647920726563656976656400000000000000000000600082015250565b60006119d86016836117cc565b91506119e3826119a2565b602082019050919050565b60006020820190508181036000830152611a07816119cb565b9050919050565b7f4e6f7420656e6f7567682066756e647320696e2074686520636f6e7472616374600082015250565b6000611a446020836117cc565b9150611a4f82611a0e565b602082019050919050565b60006020820190508181036000830152611a7381611a37565b9050919050565b7f4f6e6c792061646d696e2063616e20706572666f726d2074686973206163746960008201527f6f6e000000000000000000000000000000000000000000000000000000000000602082015250565b6000611ad66022836117cc565b9150611ae182611a7a565b604082019050919050565b60006020820190508181036000830152611b0581611ac9565b9050919050565b7f416c726561647920617070726f76656400000000000000000000000000000000600082015250565b6000611b426010836117cc565b9150611b4d82611b0c565b602082019050919050565b60006020820190508181036000830152611b7181611b35565b9050919050565b7f526563697069656e7420616c7265616479207265676973746572656400000000600082015250565b6000611bae601c836117cc565b9150611bb982611b78565b602082019050919050565b60006020820190508181036000830152611bdd81611ba1565b9050919050565b7f4e487b7100000000000000000000000000000000000000000000000000000000600052602260045260246000fd5b60006002820490506001821680611c2b57607f821691505b602082108103611c3e57611c3d611be4565b5b50919050565b60008190508160005260206000209050919050565b60006020601f8301049050919050565b600082821b905092915050565b600060088302611ca67fffffffffffffffffffffffffffffffffffffffffffffffffffffffffffffffff82611c69565b611cb08683611c69565b95508019841693508086168417925050509392505050565b6000819050919050565b6000611ced611ce8611ce384611399565b611cc8565b611399565b9050919050565b6000819050919050565b611d0783611cd2565b611d1b611d1382611cf4565b848454611c76565b825550505050565b600090565b611d30611d23565b611d3b818484611cfe565b505050565b5b81811015611d5f57611d54600082611d28565b600181019050611d41565b5050565b601f821115611da457611d7581611c44565b611d7e84611c59565b81016020851015611d8d578190505b611da1611d9985611c59565b830182611d40565b50505b505050565b600082821c905092915050565b6000611dc760001984600802611da9565b1980831691505092915050565b6000611de08383611db6565b9150826002028217905092915050565b611df9826117c1565b67ffffffffffffffff811115611e1257611e116114f6565b5b611e1c8254611c13565b611e27828285611d63565b600060209050601f831160018114611e5a5760008415611e48578287015190505b611e528582611dd4565b865550611eba565b601f198416611e6886611c44565b60005b82811015611e9057848901518255600182019150602085019450602081019050611e6b565b86831015611ead5784890151611ea9601f891682611db6565b8355505b6001600288020188555050505b505050505050565b60006060820190508181036000830152611edc8186611807565b90508181036020830152611ef08185611807565b9050611eff6040830184611458565b949350505050565b7f446f6e6174696f6e206d7573742062652067726561746572207468616e207a6560008201527f726f000000000000000000000000000000000000000000000000000000000000602082015250565b6000611f636022836117cc565b9150611f6e82611f07565b604082019050919050565b60006020820190508181036000830152611f9281611f56565b9050919050565b7f46756e647320616c7265616479207472616e7366657272656400000000000000600082015250565b6000611fcf6019836117cc565b9150611fda82611f99565b602082019050919050565b60006020820190508181036000830152611ffe81611fc2565b9050919050565b7f4e6f7420656e6f7567682066756e647300000000000000000000000000000000600082015250565b600061203b6010836117cc565b915061204682612005565b602082019050919050565b6000602082019050818103600083015261206a8161202e565b905091905056fea264697066735822122009accf4a7ce2806d3e2aca7b33a2c05c1167aa69ed54d34b96bcf63eaf50ff2764736f6c63430008130033",
  "linkReferences": {},
  "deployedLinkReferences": {}
}