{
  "_format": "hh-sol-artifact-1",
  "contractName": "CharityPlatform",
  "sourceName": "contracts/Charity.sol",
  "abi": [
    {
      "inputs": [],
      "stateMutability": "nonpayable",
      "type": "constructor"
    },
    {
      "anonymous": false,
      "inputs": [
        {
          "indexed": true,
          "internalType": "address",
          "name": "donor",
          "type": "address"
        },
        {
          "indexed": false,
          "internalType": "uint256",
          "name": "amount",
          "type": "uint256"
        }
      ],
      "name": "DonationReceived",
      "type": "event"
    },
    {
      "anonymous": false,
      "inputs": [
        {
          "indexed": true,
          "internalType": "address",
          "name": "recipient",
          "type": "address"
        },
        {
          "indexed": false,
          "internalType": "uint256",
          "name": "amount",
          "type": "uint256"
        }
      ],
      "name": "FundsTransferred",
      "type": "event"
    },
    {
      "anonymous": false,
      "inputs": [
        {
          "indexed": true,
          "internalType": "address",
          "name": "recipient",
          "type": "address"
        }
      ],
      "name": "RecipientApproved",
      "type": "event"
    },
    {
      "anonymous": false,
      "inputs": [
        {
          "indexed": true,
          "internalType": "address",
          "name": "recipient",
          "type": "address"
        },
        {
          "indexed": false,
          "internalType": "string",
          "name": "name",
          "type": "string"
        },
        {
          "indexed": false,
          "internalType": "string",
          "name": "reason",
          "type": "string"
        },
        {
          "indexed": false,
          "internalType": "uint256",
          "name": "amountNeeded",
          "type": "uint256"
        }
      ],
      "name": "RecipientRegistered",
      "type": "event"
    },
    {
      "inputs": [],
      "name": "admin",
      "outputs": [
        {
          "internalType": "address",
          "name": "",
          "type": "address"
        }
      ],
      "stateMutability": "view",
      "type": "function"
    },
    {
      "inputs": [
        {
          "internalType": "address",
          "name": "_recipient",
          "type": "address"
        }
      ],
      "name": "approveRecipient",
      "outputs": [],
      "stateMutability": "nonpayable",
      "type": "function"
    },
    {
      "inputs": [],
      "name": "donate",
      "outputs": [],
      "stateMutability": "payable",
      "type": "function"
    },
    {
      "inputs": [
        {
          "internalType": "address",
          "name": "_recipient",
          "type": "address"
        }
      ],
      "name": "donateToRecipient",
      "outputs": [],
      "stateMutability": "payable",
      "type": "function"
    },
    {
      "inputs": [],
      "name": "getAllRecipientDetails",
      "outputs": [
        {
          "components": [
            {
              "internalType": "address payable",
              "name": "wallet",
              "type": "address"
            },
            {
              "internalType": "string",
              "name": "name",
              "type": "string"
            },
            {
              "internalType": "string",
              "name": "reason",
              "type": "string"
            },
            {
              "internalType": "uint256",
              "name": "amountNeeded",
              "type": "uint256"
            },
            {
              "internalType": "bool",
              "name": "approved",
              "type": "bool"
            },
            {
              "internalType": "bool",
              "name": "received",
              "type": "bool"
            }
          ],
          "internalType": "struct CharityPlatform.Recipient[]",
          "name": "",
          "type": "tuple[]"
        }
      ],
      "stateMutability": "view",
      "type": "function"
    },
    {
      "inputs": [],
      "name": "getAllRecipients",
      "outputs": [
        {
          "internalType": "address[]",
          "name": "",
          "type": "address[]"
        }
      ],
      "stateMutability": "view",
      "type": "function"
    },
    {
      "inputs": [],
      "name": "getContractBalance",
      "outputs": [
        {
          "internalType": "uint256",
          "name": "",
          "type": "uint256"
        }
      ],
      "stateMutability": "view",
      "type": "function"
    },
    {
      "inputs": [
        {
          "internalType": "uint256",
          "name": "",
          "type": "uint256"
        }
      ],
      "name": "recipientList",
      "outputs": [
        {
          "internalType": "address",
          "name": "",
          "type": "address"
        }
      ],
      "stateMutability": "view",
      "type": "function"
    },
    {
      "inputs": [
        {
          "internalType": "address",
          "name": "",
          "type": "address"
        }
      ],
      "name": "recipients",
      "outputs": [
        {
          "internalType": "address payable",
          "name": "wallet",
          "type": "address"
        },
        {
          "internalType": "string",
          "name": "name",
          "type": "string"
        },
        {
          "internalType": "string",
          "name": "reason",
          "type": "string"
        },
        {
          "internalType": "uint256",
          "name": "amountNeeded",
          "type": "uint256"
        },
        {
          "internalType": "bool",
          "name": "approved",
          "type": "bool"
        },
        {
          "internalType": "bool",
          "name": "received",
          "type": "bool"
        }
      ],
      "stateMutability": "view",
      "type": "function"
    },
    {
      "inputs": [
        {
          "internalType": "address",
          "name": "_userWallet",
          "type": "address"
        },
        {
          "internalType": "string",
          "name": "_name",
          "type": "string"
        },
        {
          "internalType": "string",
          "name": "_reason",
          "type": "string"
        },
        {
          "internalType": "uint256",
          "name": "_amountNeeded",
          "type": "uint256"
        }
      ],
      "name": "registerRecipient",
      "outputs": [],
      "stateMutability": "nonpayable",
      "type": "function"
    },
    {
      "inputs": [
        {
          "internalType": "address",
          "name": "_recipient",
          "type": "address"
        }
      ],
      "name": "transferFunds",
      "outputs": [],
      "stateMutability": "nonpayable",
      "type": "function"
    },
    {
      "inputs": [],
      "name": "withdraw",
      "outputs": [],
      "stateMutability": "nonpayable",
      "type": "function"
    }
  ],
  "bytecode": "0x608060405234801561001057600080fd5b50336000806101000a81548173ffffffffffffffffffffffffffffffffffffffff021916908373ffffffffffffffffffffffffffffffffffffffff1602179055506126a8806100606000396000f3fe6080604052600436106100a75760003560e01c8063b74513c111610064578063b74513c114610199578063cba1814b146101c4578063e39ff19f146101ef578063eb82031214610218578063ed88c68e1461025a578063f851a44014610264576100a7565b80633ccfd60b146100ac5780636d40f85b146100c35780636f9fb98a1461010057806376d45a091461012b5780638693fd7514610154578063ad5394601461017d575b600080fd5b3480156100b857600080fd5b506100c161028f565b005b3480156100cf57600080fd5b506100ea60048036038101906100e5919061173f565b61052e565b6040516100f791906117ad565b60405180910390f35b34801561010c57600080fd5b5061011561056d565b60405161012291906117d7565b60405180910390f35b34801561013757600080fd5b50610152600480360381019061014d919061181e565b610575565b005b34801561016057600080fd5b5061017b60048036038101906101769190611991565b610804565b005b6101976004803603810190610192919061181e565b610ad8565b005b3480156101a557600080fd5b506101ae610ce6565b6040516101bb9190611aee565b60405180910390f35b3480156101d057600080fd5b506101d9610d74565b6040516101e69190611d2c565b60405180910390f35b3480156101fb57600080fd5b506102166004803603810190610211919061181e565b61105e565b005b34801561022457600080fd5b5061023f600480360381019061023a919061181e565b611468565b60405161025196959493929190611db6565b60405180910390f35b6102626115ee565b005b34801561027057600080fd5b50610279611681565b60405161028691906117ad565b60405180910390f35b6000600160003373ffffffffffffffffffffffffffffffffffffffff1673ffffffffffffffffffffffffffffffffffffffff1681526020019081526020016000209050600073ffffffffffffffffffffffffffffffffffffffff168160000160009054906101000a900473ffffffffffffffffffffffffffffffffffffffff1673ffffffffffffffffffffffffffffffffffffffff1603610365576040517f08c379a000000000000000000000000000000000000000000000000000000000815260040161035c90611e71565b60405180910390fd5b8060040160009054906101000a900460ff166103b6576040517f08c379a00000000000000000000000000000000000000000000000000000000081526004016103ad90611edd565b60405180910390fd5b8060040160019054906101000a900460ff1615610408576040517f08c379a00000000000000000000000000000000000000000000000000000000081526004016103ff90611f49565b60405180910390fd5b60008160030154905080471015610454576040517f08c379a000000000000000000000000000000000000000000000000000000000815260040161044b90611fb5565b60405180910390fd5b8160000160009054906101000a900473ffffffffffffffffffffffffffffffffffffffff1673ffffffffffffffffffffffffffffffffffffffff166108fc829081150290604051600060405180830381858888f193505050501580156104be573d6000803e3d6000fd5b5060018260040160016101000a81548160ff0219169083151502179055503373ffffffffffffffffffffffffffffffffffffffff167f8c9a4f13b67cb64d7c6aa1ae0c9bf07694af521a28b93e7060020810ab4bc59f8260405161052291906117d7565b60405180910390a25050565b6002818154811061053e57600080fd5b906000526020600020016000915054906101000a900473ffffffffffffffffffffffffffffffffffffffff1681565b600047905090565b60008054906101000a900473ffffffffffffffffffffffffffffffffffffffff1673ffffffffffffffffffffffffffffffffffffffff163373ffffffffffffffffffffffffffffffffffffffff1614610603576040517f08c379a00000000000000000000000000000000000000000000000000000000081526004016105fa90612047565b60405180910390fd5b600073ffffffffffffffffffffffffffffffffffffffff16600160008373ffffffffffffffffffffffffffffffffffffffff1673ffffffffffffffffffffffffffffffffffffffff16815260200190815260200160002060000160009054906101000a900473ffffffffffffffffffffffffffffffffffffffff1673ffffffffffffffffffffffffffffffffffffffff16036106d4576040517f08c379a00000000000000000000000000000000000000000000000000000000081526004016106cb90611e71565b60405180910390fd5b600160008273ffffffffffffffffffffffffffffffffffffffff1673ffffffffffffffffffffffffffffffffffffffff16815260200190815260200160002060040160009054906101000a900460ff1615610764576040517f08c379a000000000000000000000000000000000000000000000000000000000815260040161075b906120b3565b60405180910390fd5b60018060008373ffffffffffffffffffffffffffffffffffffffff1673ffffffffffffffffffffffffffffffffffffffff16815260200190815260200160002060040160006101000a81548160ff0219169083151502179055508073ffffffffffffffffffffffffffffffffffffffff167f09fc45c4c2993899475bf706f40bd1bffb0121f30ce25abfcb3113d11b4bb87660405160405180910390a250565b600073ffffffffffffffffffffffffffffffffffffffff16600160008673ffffffffffffffffffffffffffffffffffffffff1673ffffffffffffffffffffffffffffffffffffffff16815260200190815260200160002060000160009054906101000a900473ffffffffffffffffffffffffffffffffffffffff1673ffffffffffffffffffffffffffffffffffffffff16146108d5576040517f08c379a00000000000000000000000000000000000000000000000000000000081526004016108cc9061211f565b60405180910390fd5b6040518060c001604052808573ffffffffffffffffffffffffffffffffffffffff16815260200184815260200183815260200182815260200160001515815260200160001515815250600160008673ffffffffffffffffffffffffffffffffffffffff1673ffffffffffffffffffffffffffffffffffffffff16815260200190815260200160002060008201518160000160006101000a81548173ffffffffffffffffffffffffffffffffffffffff021916908373ffffffffffffffffffffffffffffffffffffffff16021790555060208201518160010190816109b9919061234b565b5060408201518160020190816109cf919061234b565b506060820151816003015560808201518160040160006101000a81548160ff02191690831515021790555060a08201518160040160016101000a81548160ff0219169083151502179055509050506002849080600181540180825580915050600190039060005260206000200160009091909190916101000a81548173ffffffffffffffffffffffffffffffffffffffff021916908373ffffffffffffffffffffffffffffffffffffffff1602179055508373ffffffffffffffffffffffffffffffffffffffff167fd4f7c70059863460c4dff216b5d01688ec8a4135f4f229f58117db8f26a18b6a848484604051610aca9392919061241d565b60405180910390a250505050565b60003411610b1b576040517f08c379a0000000000000000000000000000000000000000000000000000000008152600401610b12906124d4565b60405180910390fd5b600073ffffffffffffffffffffffffffffffffffffffff16600160008373ffffffffffffffffffffffffffffffffffffffff1673ffffffffffffffffffffffffffffffffffffffff16815260200190815260200160002060000160009054906101000a900473ffffffffffffffffffffffffffffffffffffffff1673ffffffffffffffffffffffffffffffffffffffff1603610bec576040517f08c379a0000000000000000000000000000000000000000000000000000000008152600401610be390611e71565b60405180910390fd5b3373ffffffffffffffffffffffffffffffffffffffff167f264f630d9efa0d07053a31163641d9fcc0adafc9d9e76f1c37c2ce3a558d2c5234604051610c3291906117d7565b60405180910390a2600160008273ffffffffffffffffffffffffffffffffffffffff1673ffffffffffffffffffffffffffffffffffffffff16815260200190815260200160002060000160009054906101000a900473ffffffffffffffffffffffffffffffffffffffff1673ffffffffffffffffffffffffffffffffffffffff166108fc349081150290604051600060405180830381858888f19350505050158015610ce2573d6000803e3d6000fd5b5050565b60606002805480602002602001604051908101604052809291908181526020018280548015610d6a57602002820191906000526020600020905b8160009054906101000a900473ffffffffffffffffffffffffffffffffffffffff1673ffffffffffffffffffffffffffffffffffffffff1681526020019060010190808311610d20575b5050505050905090565b6060600060028054905067ffffffffffffffff811115610d9757610d96611866565b5b604051908082528060200260200182016040528015610dd057816020015b610dbd6116a5565b815260200190600190039081610db55790505b50905060005b600280549050811015611056576001600060028381548110610dfb57610dfa6124f4565b5b9060005260206000200160009054906101000a900473ffffffffffffffffffffffffffffffffffffffff1673ffffffffffffffffffffffffffffffffffffffff1673ffffffffffffffffffffffffffffffffffffffff1681526020019081526020016000206040518060c00160405290816000820160009054906101000a900473ffffffffffffffffffffffffffffffffffffffff1673ffffffffffffffffffffffffffffffffffffffff1673ffffffffffffffffffffffffffffffffffffffff168152602001600182018054610ed19061216e565b80601f0160208091040260200160405190810160405280929190818152602001828054610efd9061216e565b8015610f4a5780601f10610f1f57610100808354040283529160200191610f4a565b820191906000526020600020905b815481529060010190602001808311610f2d57829003601f168201915b50505050508152602001600282018054610f639061216e565b80601f0160208091040260200160405190810160405280929190818152602001828054610f8f9061216e565b8015610fdc5780601f10610fb157610100808354040283529160200191610fdc565b820191906000526020600020905b815481529060010190602001808311610fbf57829003601f168201915b50505050508152602001600382015481526020016004820160009054906101000a900460ff161515151581526020016004820160019054906101000a900460ff161515151581525050828281518110611038576110376124f4565b5b6020026020010181905250808061104e90612552565b915050610dd6565b508091505090565b60008054906101000a900473ffffffffffffffffffffffffffffffffffffffff1673ffffffffffffffffffffffffffffffffffffffff163373ffffffffffffffffffffffffffffffffffffffff16146110ec576040517f08c379a00000000000000000000000000000000000000000000000000000000081526004016110e390612047565b60405180910390fd5b600160008273ffffffffffffffffffffffffffffffffffffffff1673ffffffffffffffffffffffffffffffffffffffff16815260200190815260200160002060040160009054906101000a900460ff1661117b576040517f08c379a000000000000000000000000000000000000000000000000000000000815260040161117290611edd565b60405180910390fd5b600160008273ffffffffffffffffffffffffffffffffffffffff1673ffffffffffffffffffffffffffffffffffffffff16815260200190815260200160002060040160019054906101000a900460ff161561120b576040517f08c379a0000000000000000000000000000000000000000000000000000000008152600401611202906125e6565b60405180910390fd5b600160008273ffffffffffffffffffffffffffffffffffffffff1673ffffffffffffffffffffffffffffffffffffffff16815260200190815260200160002060030154471015611290576040517f08c379a000000000000000000000000000000000000000000000000000000000815260040161128790612652565b60405180910390fd5b600160008273ffffffffffffffffffffffffffffffffffffffff1673ffffffffffffffffffffffffffffffffffffffff16815260200190815260200160002060000160009054906101000a900473ffffffffffffffffffffffffffffffffffffffff1673ffffffffffffffffffffffffffffffffffffffff166108fc600160008473ffffffffffffffffffffffffffffffffffffffff1673ffffffffffffffffffffffffffffffffffffffff168152602001908152602001600020600301549081150290604051600060405180830381858888f1935050505015801561137a573d6000803e3d6000fd5b5060018060008373ffffffffffffffffffffffffffffffffffffffff1673ffffffffffffffffffffffffffffffffffffffff16815260200190815260200160002060040160016101000a81548160ff0219169083151502179055508073ffffffffffffffffffffffffffffffffffffffff167f8c9a4f13b67cb64d7c6aa1ae0c9bf07694af521a28b93e7060020810ab4bc59f600160008473ffffffffffffffffffffffffffffffffffffffff1673ffffffffffffffffffffffffffffffffffffffff1681526020019081526020016000206003015460405161145d91906117d7565b60405180910390a250565b60016020528060005260406000206000915090508060000160009054906101000a900473ffffffffffffffffffffffffffffffffffffffff16908060010180546114b19061216e565b80601f01602080910402602001604051908101604052809291908181526020018280546114dd9061216e565b801561152a5780601f106114ff5761010080835404028352916020019161152a565b820191906000526020600020905b81548152906001019060200180831161150d57829003601f168201915b50505050509080600201805461153f9061216e565b80601f016020809104026020016040519081016040528092919081815260200182805461156b9061216e565b80156115b85780601f1061158d576101008083540402835291602001916115b8565b820191906000526020600020905b81548152906001019060200180831161159b57829003601f168201915b5050505050908060030154908060040160009054906101000a900460ff16908060040160019054906101000a900460ff16905086565b60003411611631576040517f08c379a0000000000000000000000000000000000000000000000000000000008152600401611628906124d4565b60405180910390fd5b3373ffffffffffffffffffffffffffffffffffffffff167f264f630d9efa0d07053a31163641d9fcc0adafc9d9e76f1c37c2ce3a558d2c523460405161167791906117d7565b60405180910390a2565b60008054906101000a900473ffffffffffffffffffffffffffffffffffffffff1681565b6040518060c00160405280600073ffffffffffffffffffffffffffffffffffffffff1681526020016060815260200160608152602001600081526020016000151581526020016000151581525090565b6000604051905090565b600080fd5b600080fd5b6000819050919050565b61171c81611709565b811461172757600080fd5b50565b60008135905061173981611713565b92915050565b600060208284031215611755576117546116ff565b5b60006117638482850161172a565b91505092915050565b600073ffffffffffffffffffffffffffffffffffffffff82169050919050565b60006117978261176c565b9050919050565b6117a78161178c565b82525050565b60006020820190506117c2600083018461179e565b92915050565b6117d181611709565b82525050565b60006020820190506117ec60008301846117c8565b92915050565b6117fb8161178c565b811461180657600080fd5b50565b600081359050611818816117f2565b92915050565b600060208284031215611834576118336116ff565b5b600061184284828501611809565b91505092915050565b600080fd5b600080fd5b6000601f19601f8301169050919050565b7f4e487b7100000000000000000000000000000000000000000000000000000000600052604160045260246000fd5b61189e82611855565b810181811067ffffffffffffffff821117156118bd576118bc611866565b5b80604052505050565b60006118d06116f5565b90506118dc8282611895565b919050565b600067ffffffffffffffff8211156118fc576118fb611866565b5b61190582611855565b9050602081019050919050565b82818337600083830152505050565b600061193461192f846118e1565b6118c6565b9050828152602081018484840111156119505761194f611850565b5b61195b848285611912565b509392505050565b600082601f8301126119785761197761184b565b5b8135611988848260208601611921565b91505092915050565b600080600080608085870312156119ab576119aa6116ff565b5b60006119b987828801611809565b945050602085013567ffffffffffffffff8111156119da576119d9611704565b5b6119e687828801611963565b935050604085013567ffffffffffffffff811115611a0757611a06611704565b5b611a1387828801611963565b9250506060611a248782880161172a565b91505092959194509250565b600081519050919050565b600082825260208201905092915050565b6000819050602082019050919050565b611a658161178c565b82525050565b6000611a778383611a5c565b60208301905092915050565b6000602082019050919050565b6000611a9b82611a30565b611aa58185611a3b565b9350611ab083611a4c565b8060005b83811015611ae1578151611ac88882611a6b565b9750611ad383611a83565b925050600181019050611ab4565b5085935050505092915050565b60006020820190508181036000830152611b088184611a90565b905092915050565b600081519050919050565b600082825260208201905092915050565b6000819050602082019050919050565b6000611b478261176c565b9050919050565b611b5781611b3c565b82525050565b600081519050919050565b600082825260208201905092915050565b60005b83811015611b97578082015181840152602081019050611b7c565b60008484015250505050565b6000611bae82611b5d565b611bb88185611b68565b9350611bc8818560208601611b79565b611bd181611855565b840191505092915050565b611be581611709565b82525050565b60008115159050919050565b611c0081611beb565b82525050565b600060c083016000830151611c1e6000860182611b4e565b5060208301518482036020860152611c368282611ba3565b91505060408301518482036040860152611c508282611ba3565b9150506060830151611c656060860182611bdc565b506080830151611c786080860182611bf7565b5060a0830151611c8b60a0860182611bf7565b508091505092915050565b6000611ca28383611c06565b905092915050565b6000602082019050919050565b6000611cc282611b10565b611ccc8185611b1b565b935083602082028501611cde85611b2c565b8060005b85811015611d1a5784840389528151611cfb8582611c96565b9450611d0683611caa565b925060208a01995050600181019050611ce2565b50829750879550505050505092915050565b60006020820190508181036000830152611d468184611cb7565b905092915050565b611d5781611b3c565b82525050565b600082825260208201905092915050565b6000611d7982611b5d565b611d838185611d5d565b9350611d93818560208601611b79565b611d9c81611855565b840191505092915050565b611db081611beb565b82525050565b600060c082019050611dcb6000830189611d4e565b8181036020830152611ddd8188611d6e565b90508181036040830152611df18187611d6e565b9050611e0060608301866117c8565b611e0d6080830185611da7565b611e1a60a0830184611da7565b979650505050505050565b7f526563697069656e74206e6f7420666f756e6400000000000000000000000000600082015250565b6000611e5b601383611d5d565b9150611e6682611e25565b602082019050919050565b60006020820190508181036000830152611e8a81611e4e565b9050919050565b7f526563697069656e74206e6f7420617070726f76656400000000000000000000600082015250565b6000611ec7601683611d5d565b9150611ed282611e91565b602082019050919050565b60006020820190508181036000830152611ef681611eba565b9050919050565b7f46756e647320616c726561647920726563656976656400000000000000000000600082015250565b6000611f33601683611d5d565b9150611f3e82611efd565b602082019050919050565b60006020820190508181036000830152611f6281611f26565b9050919050565b7f4e6f7420656e6f7567682066756e647320696e2074686520636f6e7472616374600082015250565b6000611f9f602083611d5d565b9150611faa82611f69565b602082019050919050565b60006020820190508181036000830152611fce81611f92565b9050919050565b7f4f6e6c792061646d696e2063616e20706572666f726d2074686973206163746960008201527f6f6e000000000000000000000000000000000000000000000000000000000000602082015250565b6000612031602283611d5d565b915061203c82611fd5565b604082019050919050565b6000602082019050818103600083015261206081612024565b9050919050565b7f416c726561647920617070726f76656400000000000000000000000000000000600082015250565b600061209d601083611d5d565b91506120a882612067565b602082019050919050565b600060208201905081810360008301526120cc81612090565b9050919050565b7f526563697069656e7420616c7265616479207265676973746572656400000000600082015250565b6000612109601c83611d5d565b9150612114826120d3565b602082019050919050565b60006020820190508181036000830152612138816120fc565b9050919050565b7f4e487b7100000000000000000000000000000000000000000000000000000000600052602260045260246000fd5b6000600282049050600182168061218657607f821691505b6020821081036121995761219861213f565b5b50919050565b60008190508160005260206000209050919050565b60006020601f8301049050919050565b600082821b905092915050565b6000600883026122017fffffffffffffffffffffffffffffffffffffffffffffffffffffffffffffffff826121c4565b61220b86836121c4565b95508019841693508086168417925050509392505050565b6000819050919050565b600061224861224361223e84611709565b612223565b611709565b9050919050565b6000819050919050565b6122628361222d565b61227661226e8261224f565b8484546121d1565b825550505050565b600090565b61228b61227e565b612296818484612259565b505050565b5b818110156122ba576122af600082612283565b60018101905061229c565b5050565b601f8211156122ff576122d08161219f565b6122d9846121b4565b810160208510156122e8578190505b6122fc6122f4856121b4565b83018261229b565b50505b505050565b600082821c905092915050565b600061232260001984600802612304565b1980831691505092915050565b600061233b8383612311565b9150826002028217905092915050565b61235482611b5d565b67ffffffffffffffff81111561236d5761236c611866565b5b612377825461216e565b6123828282856122be565b600060209050601f8311600181146123b557600084156123a3578287015190505b6123ad858261232f565b865550612415565b601f1984166123c38661219f565b60005b828110156123eb578489015182556001820191506020850194506020810190506123c6565b868310156124085784890151612404601f891682612311565b8355505b6001600288020188555050505b505050505050565b600060608201905081810360008301526124378186611d6e565b9050818103602083015261244b8185611d6e565b905061245a60408301846117c8565b949350505050565b7f446f6e6174696f6e206d7573742062652067726561746572207468616e207a6560008201527f726f000000000000000000000000000000000000000000000000000000000000602082015250565b60006124be602283611d5d565b91506124c982612462565b604082019050919050565b600060208201905081810360008301526124ed816124b1565b9050919050565b7f4e487b7100000000000000000000000000000000000000000000000000000000600052603260045260246000fd5b7f4e487b7100000000000000000000000000000000000000000000000000000000600052601160045260246000fd5b600061255d82611709565b91507fffffffffffffffffffffffffffffffffffffffffffffffffffffffffffffffff820361258f5761258e612523565b5b600182019050919050565b7f46756e647320616c7265616479207472616e7366657272656400000000000000600082015250565b60006125d0601983611d5d565b91506125db8261259a565b602082019050919050565b600060208201905081810360008301526125ff816125c3565b9050919050565b7f4e6f7420656e6f7567682066756e647300000000000000000000000000000000600082015250565b600061263c601083611d5d565b915061264782612606565b602082019050919050565b6000602082019050818103600083015261266b8161262f565b905091905056fea2646970667358221220496cba89ac2217c47e7f3d45b146b01c913889efa40a2d537aa259325af2d36264736f6c63430008130033",
  "linkReferences": {},
  "deployedLinkReferences": {}
}